{
  "_format": "hh3-artifact-1",
  "contractName": "QuestTokenNFT",
  "sourceName": "contracts/QuestTokenNFT.sol",
  "abi": [
    {
      "inputs": [
        {
          "internalType": "address",
          "name": "initialOwner",
          "type": "address"
        }
      ],
      "stateMutability": "nonpayable",
      "type": "constructor"
    },
    {
      "inputs": [
        {
          "internalType": "address",
          "name": "sender",
          "type": "address"
        },
        {
          "internalType": "uint256",
          "name": "tokenId",
          "type": "uint256"
        },
        {
          "internalType": "address",
          "name": "owner",
          "type": "address"
        }
      ],
      "name": "ERC721IncorrectOwner",
      "type": "error"
    },
    {
      "inputs": [
        {
          "internalType": "address",
          "name": "operator",
          "type": "address"
        },
        {
          "internalType": "uint256",
          "name": "tokenId",
          "type": "uint256"
        }
      ],
      "name": "ERC721InsufficientApproval",
      "type": "error"
    },
    {
      "inputs": [
        {
          "internalType": "address",
          "name": "approver",
          "type": "address"
        }
      ],
      "name": "ERC721InvalidApprover",
      "type": "error"
    },
    {
      "inputs": [
        {
          "internalType": "address",
          "name": "operator",
          "type": "address"
        }
      ],
      "name": "ERC721InvalidOperator",
      "type": "error"
    },
    {
      "inputs": [
        {
          "internalType": "address",
          "name": "owner",
          "type": "address"
        }
      ],
      "name": "ERC721InvalidOwner",
      "type": "error"
    },
    {
      "inputs": [
        {
          "internalType": "address",
          "name": "receiver",
          "type": "address"
        }
      ],
      "name": "ERC721InvalidReceiver",
      "type": "error"
    },
    {
      "inputs": [
        {
          "internalType": "address",
          "name": "sender",
          "type": "address"
        }
      ],
      "name": "ERC721InvalidSender",
      "type": "error"
    },
    {
      "inputs": [
        {
          "internalType": "uint256",
          "name": "tokenId",
          "type": "uint256"
        }
      ],
      "name": "ERC721NonexistentToken",
      "type": "error"
    },
    {
      "inputs": [
        {
          "internalType": "address",
          "name": "owner",
          "type": "address"
        }
      ],
      "name": "OwnableInvalidOwner",
      "type": "error"
    },
    {
      "inputs": [
        {
          "internalType": "address",
          "name": "account",
          "type": "address"
        }
      ],
      "name": "OwnableUnauthorizedAccount",
      "type": "error"
    },
    {
      "anonymous": false,
      "inputs": [
        {
          "indexed": true,
          "internalType": "address",
          "name": "owner",
          "type": "address"
        },
        {
          "indexed": true,
          "internalType": "address",
          "name": "approved",
          "type": "address"
        },
        {
          "indexed": true,
          "internalType": "uint256",
          "name": "tokenId",
          "type": "uint256"
        }
      ],
      "name": "Approval",
      "type": "event"
    },
    {
      "anonymous": false,
      "inputs": [
        {
          "indexed": true,
          "internalType": "address",
          "name": "owner",
          "type": "address"
        },
        {
          "indexed": true,
          "internalType": "address",
          "name": "operator",
          "type": "address"
        },
        {
          "indexed": false,
          "internalType": "bool",
          "name": "approved",
          "type": "bool"
        }
      ],
      "name": "ApprovalForAll",
      "type": "event"
    },
    {
      "anonymous": false,
      "inputs": [
        {
          "indexed": false,
          "internalType": "uint256",
          "name": "_fromTokenId",
          "type": "uint256"
        },
        {
          "indexed": false,
          "internalType": "uint256",
          "name": "_toTokenId",
          "type": "uint256"
        }
      ],
      "name": "BatchMetadataUpdate",
      "type": "event"
    },
    {
      "anonymous": false,
      "inputs": [
        {
          "indexed": false,
          "internalType": "uint256",
          "name": "_tokenId",
          "type": "uint256"
        }
      ],
      "name": "MetadataUpdate",
      "type": "event"
    },
    {
      "anonymous": false,
      "inputs": [
        {
          "indexed": true,
          "internalType": "address",
          "name": "previousOwner",
          "type": "address"
        },
        {
          "indexed": true,
          "internalType": "address",
          "name": "newOwner",
          "type": "address"
        }
      ],
      "name": "OwnershipTransferred",
      "type": "event"
    },
    {
      "anonymous": false,
      "inputs": [
        {
          "indexed": true,
          "internalType": "address",
          "name": "user",
          "type": "address"
        },
        {
          "components": [
            {
              "internalType": "uint256",
              "name": "usertoken",
              "type": "uint256"
            }
          ],
          "indexed": false,
          "internalType": "struct QuestTokenNFT.UserDataTokens",
          "name": "updatedData",
          "type": "tuple"
        }
      ],
      "name": "TokenBalanceUpdated",
      "type": "event"
    },
    {
      "anonymous": false,
      "inputs": [
        {
          "indexed": true,
          "internalType": "address",
          "name": "from",
          "type": "address"
        },
        {
          "indexed": true,
          "internalType": "address",
          "name": "to",
          "type": "address"
        },
        {
          "indexed": true,
          "internalType": "uint256",
          "name": "tokenId",
          "type": "uint256"
        }
      ],
      "name": "Transfer",
      "type": "event"
    },
    {
      "inputs": [
        {
          "internalType": "address",
          "name": "to",
          "type": "address"
        },
        {
          "internalType": "uint256",
          "name": "tokenId",
          "type": "uint256"
        }
      ],
      "name": "approve",
      "outputs": [],
      "stateMutability": "nonpayable",
      "type": "function"
    },
    {
      "inputs": [
        {
          "internalType": "uint256",
          "name": "pairedJobId",
          "type": "uint256"
        }
      ],
      "name": "approveJobCompletion",
      "outputs": [],
      "stateMutability": "nonpayable",
      "type": "function"
    },
    {
      "inputs": [
        {
          "internalType": "address",
          "name": "owner",
          "type": "address"
        }
      ],
      "name": "balanceOf",
      "outputs": [
        {
          "internalType": "uint256",
          "name": "",
          "type": "uint256"
        }
      ],
      "stateMutability": "view",
      "type": "function"
    },
    {
      "inputs": [
        {
          "internalType": "uint256",
          "name": "tokenId",
          "type": "uint256"
        }
      ],
      "name": "buyAssetNFT",
      "outputs": [],
      "stateMutability": "nonpayable",
      "type": "function"
    },
    {
      "inputs": [
        {
          "internalType": "uint256",
          "name": "offeredJobId",
          "type": "uint256"
        }
      ],
      "name": "claimToTakeOfferedJob",
      "outputs": [],
      "stateMutability": "nonpayable",
      "type": "function"
    },
    {
      "inputs": [
        {
          "internalType": "uint256",
          "name": "pairedJobId",
          "type": "uint256"
        }
      ],
      "name": "completeJob",
      "outputs": [],
      "stateMutability": "nonpayable",
      "type": "function"
    },
    {
      "inputs": [
        {
          "internalType": "address",
          "name": "owner",
          "type": "address"
        }
      ],
      "name": "getAllAssets",
      "outputs": [
        {
          "components": [
            {
              "internalType": "uint256",
              "name": "tokenId",
              "type": "uint256"
            },
            {
              "internalType": "string",
              "name": "documentURI",
              "type": "string"
            },
            {
              "internalType": "bytes32",
              "name": "assetHash",
              "type": "bytes32"
            },
            {
              "internalType": "bytes",
              "name": "sign",
              "type": "bytes"
            },
            {
              "internalType": "uint256",
              "name": "priceasset",
              "type": "uint256"
            }
          ],
          "internalType": "struct QuestTokenNFT.AssetData[]",
          "name": "",
          "type": "tuple[]"
        }
      ],
      "stateMutability": "view",
      "type": "function"
    },
    {
      "inputs": [],
      "name": "getAllAvailableJobs",
      "outputs": [
        {
          "components": [
            {
              "internalType": "uint256",
              "name": "id",
              "type": "uint256"
            },
            {
              "internalType": "address",
              "name": "owner",
              "type": "address"
            },
            {
              "internalType": "uint256",
              "name": "value",
              "type": "uint256"
            },
            {
              "internalType": "string",
              "name": "documentURI",
              "type": "string"
            },
            {
              "internalType": "bytes32",
              "name": "assetHash",
              "type": "bytes32"
            },
            {
              "internalType": "bool",
              "name": "isTaken",
              "type": "bool"
            },
            {
              "internalType": "bool",
              "name": "isFinished",
              "type": "bool"
            }
          ],
          "internalType": "struct QuestTokenNFT.OfferedPortofolioData[]",
          "name": "",
          "type": "tuple[]"
        }
      ],
      "stateMutability": "view",
      "type": "function"
    },
    {
      "inputs": [
        {
          "internalType": "address",
          "name": "owner",
          "type": "address"
        }
      ],
      "name": "getAllNPCRewards",
      "outputs": [
        {
          "components": [
            {
              "internalType": "uint256",
              "name": "tokenId",
              "type": "uint256"
            },
            {
              "internalType": "uint256",
              "name": "value",
              "type": "uint256"
            },
            {
              "internalType": "bytes32",
              "name": "assetHash",
              "type": "bytes32"
            }
          ],
          "internalType": "struct QuestTokenNFT.NPCRewardData[]",
          "name": "",
          "type": "tuple[]"
        }
      ],
      "stateMutability": "view",
      "type": "function"
    },
    {
      "inputs": [
        {
          "internalType": "address",
          "name": "owner",
          "type": "address"
        }
      ],
      "name": "getAllPortfolios",
      "outputs": [
        {
          "components": [
            {
              "internalType": "uint256",
              "name": "tokenId",
              "type": "uint256"
            },
            {
              "internalType": "string",
              "name": "documentURI",
              "type": "string"
            },
            {
              "internalType": "uint256",
              "name": "value",
              "type": "uint256"
            },
            {
              "internalType": "bytes32",
              "name": "assetHash",
              "type": "bytes32"
            },
            {
              "internalType": "bytes",
              "name": "sign",
              "type": "bytes"
            }
          ],
          "internalType": "struct QuestTokenNFT.PortofolioData[]",
          "name": "",
          "type": "tuple[]"
        }
      ],
      "stateMutability": "view",
      "type": "function"
    },
    {
      "inputs": [
        {
          "internalType": "uint256",
          "name": "tokenId",
          "type": "uint256"
        }
      ],
      "name": "getApproved",
      "outputs": [
        {
          "internalType": "address",
          "name": "",
          "type": "address"
        }
      ],
      "stateMutability": "view",
      "type": "function"
    },
    {
      "inputs": [
        {
          "internalType": "uint256",
          "name": "tokenId",
          "type": "uint256"
        }
      ],
      "name": "getAssetData",
      "outputs": [
        {
          "components": [
            {
              "internalType": "uint256",
              "name": "tokenId",
              "type": "uint256"
            },
            {
              "internalType": "string",
              "name": "documentURI",
              "type": "string"
            },
            {
              "internalType": "bytes32",
              "name": "assetHash",
              "type": "bytes32"
            },
            {
              "internalType": "bytes",
              "name": "sign",
              "type": "bytes"
            },
            {
              "internalType": "uint256",
              "name": "priceasset",
              "type": "uint256"
            }
          ],
          "internalType": "struct QuestTokenNFT.AssetData",
          "name": "",
          "type": "tuple"
        }
      ],
      "stateMutability": "view",
      "type": "function"
    },
    {
      "inputs": [
        {
          "internalType": "uint256",
          "name": "jobId",
          "type": "uint256"
        }
      ],
      "name": "getJobDetails",
      "outputs": [
        {
          "components": [
            {
              "internalType": "uint256",
              "name": "id",
              "type": "uint256"
            },
            {
              "internalType": "address",
              "name": "owner",
              "type": "address"
            },
            {
              "internalType": "uint256",
              "name": "value",
              "type": "uint256"
            },
            {
              "internalType": "string",
              "name": "documentURI",
              "type": "string"
            },
            {
              "internalType": "bytes32",
              "name": "assetHash",
              "type": "bytes32"
            },
            {
              "internalType": "bool",
              "name": "isTaken",
              "type": "bool"
            },
            {
              "internalType": "bool",
              "name": "isFinished",
              "type": "bool"
            }
          ],
          "internalType": "struct QuestTokenNFT.OfferedPortofolioData",
          "name": "",
          "type": "tuple"
        }
      ],
      "stateMutability": "view",
      "type": "function"
    },
    {
      "inputs": [],
      "name": "getMyTakenJobs",
      "outputs": [
        {
          "components": [
            {
              "internalType": "uint256",
              "name": "id",
              "type": "uint256"
            },
            {
              "internalType": "address",
              "name": "worker",
              "type": "address"
            },
            {
              "components": [
                {
                  "internalType": "uint256",
                  "name": "id",
                  "type": "uint256"
                },
                {
                  "internalType": "address",
                  "name": "owner",
                  "type": "address"
                },
                {
                  "internalType": "uint256",
                  "name": "value",
                  "type": "uint256"
                },
                {
                  "internalType": "string",
                  "name": "documentURI",
                  "type": "string"
                },
                {
                  "internalType": "bytes32",
                  "name": "assetHash",
                  "type": "bytes32"
                },
                {
                  "internalType": "bool",
                  "name": "isTaken",
                  "type": "bool"
                },
                {
                  "internalType": "bool",
                  "name": "isFinished",
                  "type": "bool"
                }
              ],
              "internalType": "struct QuestTokenNFT.OfferedPortofolioData",
              "name": "quest",
              "type": "tuple"
            }
          ],
          "internalType": "struct QuestTokenNFT.PairedJob[]",
          "name": "",
          "type": "tuple[]"
        }
      ],
      "stateMutability": "view",
      "type": "function"
    },
    {
      "inputs": [
        {
          "internalType": "uint256",
          "name": "tokenId",
          "type": "uint256"
        }
      ],
      "name": "getNPCRewardData",
      "outputs": [
        {
          "components": [
            {
              "internalType": "uint256",
              "name": "tokenId",
              "type": "uint256"
            },
            {
              "internalType": "uint256",
              "name": "value",
              "type": "uint256"
            },
            {
              "internalType": "bytes32",
              "name": "assetHash",
              "type": "bytes32"
            }
          ],
          "internalType": "struct QuestTokenNFT.NPCRewardData",
          "name": "",
          "type": "tuple"
        }
      ],
      "stateMutability": "view",
      "type": "function"
    },
    {
      "inputs": [
        {
          "internalType": "uint256",
          "name": "pairedJobId",
          "type": "uint256"
        }
      ],
      "name": "getPairedJobDetails",
      "outputs": [
        {
          "components": [
            {
              "internalType": "uint256",
              "name": "id",
              "type": "uint256"
            },
            {
              "internalType": "address",
              "name": "worker",
              "type": "address"
            },
            {
              "components": [
                {
                  "internalType": "uint256",
                  "name": "id",
                  "type": "uint256"
                },
                {
                  "internalType": "address",
                  "name": "owner",
                  "type": "address"
                },
                {
                  "internalType": "uint256",
                  "name": "value",
                  "type": "uint256"
                },
                {
                  "internalType": "string",
                  "name": "documentURI",
                  "type": "string"
                },
                {
                  "internalType": "bytes32",
                  "name": "assetHash",
                  "type": "bytes32"
                },
                {
                  "internalType": "bool",
                  "name": "isTaken",
                  "type": "bool"
                },
                {
                  "internalType": "bool",
                  "name": "isFinished",
                  "type": "bool"
                }
              ],
              "internalType": "struct QuestTokenNFT.OfferedPortofolioData",
              "name": "quest",
              "type": "tuple"
            }
          ],
          "internalType": "struct QuestTokenNFT.PairedJob",
          "name": "",
          "type": "tuple"
        }
      ],
      "stateMutability": "view",
      "type": "function"
    },
    {
      "inputs": [
        {
          "internalType": "uint256",
          "name": "tokenId",
          "type": "uint256"
        }
      ],
      "name": "getPortfolioData",
      "outputs": [
        {
          "components": [
            {
              "internalType": "uint256",
              "name": "tokenId",
              "type": "uint256"
            },
            {
              "internalType": "string",
              "name": "documentURI",
              "type": "string"
            },
            {
              "internalType": "uint256",
              "name": "value",
              "type": "uint256"
            },
            {
              "internalType": "bytes32",
              "name": "assetHash",
              "type": "bytes32"
            },
            {
              "internalType": "bytes",
              "name": "sign",
              "type": "bytes"
            }
          ],
          "internalType": "struct QuestTokenNFT.PortofolioData",
          "name": "",
          "type": "tuple"
        }
      ],
      "stateMutability": "view",
      "type": "function"
    },
    {
      "inputs": [
        {
          "internalType": "address",
          "name": "user",
          "type": "address"
        }
      ],
      "name": "getUserTokenBalance",
      "outputs": [
        {
          "internalType": "uint256",
          "name": "",
          "type": "uint256"
        }
      ],
      "stateMutability": "view",
      "type": "function"
    },
    {
      "inputs": [],
      "name": "getallMyPublishedJob",
      "outputs": [
        {
          "components": [
            {
              "internalType": "uint256",
              "name": "id",
              "type": "uint256"
            },
            {
              "internalType": "address",
              "name": "owner",
              "type": "address"
            },
            {
              "internalType": "uint256",
              "name": "value",
              "type": "uint256"
            },
            {
              "internalType": "string",
              "name": "documentURI",
              "type": "string"
            },
            {
              "internalType": "bytes32",
              "name": "assetHash",
              "type": "bytes32"
            },
            {
              "internalType": "bool",
              "name": "isTaken",
              "type": "bool"
            },
            {
              "internalType": "bool",
              "name": "isFinished",
              "type": "bool"
            }
          ],
          "internalType": "struct QuestTokenNFT.OfferedPortofolioData[]",
          "name": "",
          "type": "tuple[]"
        }
      ],
      "stateMutability": "view",
      "type": "function"
    },
    {
      "inputs": [
        {
          "internalType": "address",
          "name": "owner",
          "type": "address"
        },
        {
          "internalType": "address",
          "name": "operator",
          "type": "address"
        }
      ],
      "name": "isApprovedForAll",
      "outputs": [
        {
          "internalType": "bool",
          "name": "",
          "type": "bool"
        }
      ],
      "stateMutability": "view",
      "type": "function"
    },
    {
      "inputs": [
        {
          "internalType": "string",
          "name": "documentURI",
          "type": "string"
        },
        {
          "internalType": "bytes32",
          "name": "assetHash",
          "type": "bytes32"
        },
        {
          "internalType": "bytes",
          "name": "sign",
          "type": "bytes"
        },
        {
          "internalType": "uint256",
          "name": "priceasset",
          "type": "uint256"
        }
      ],
      "name": "mintAssetNFT",
      "outputs": [
        {
          "internalType": "uint256",
          "name": "",
          "type": "uint256"
        }
      ],
      "stateMutability": "nonpayable",
      "type": "function"
    },
    {
      "inputs": [
        {
          "internalType": "uint256",
          "name": "value",
          "type": "uint256"
        },
        {
          "internalType": "string",
          "name": "documentURI",
          "type": "string"
        },
        {
          "internalType": "bytes32",
          "name": "assetHash",
          "type": "bytes32"
        },
        {
          "internalType": "bytes",
          "name": "sign",
          "type": "bytes"
        }
      ],
      "name": "mintNFTPortfolio",
      "outputs": [
        {
          "internalType": "uint256",
          "name": "",
          "type": "uint256"
        }
      ],
      "stateMutability": "nonpayable",
      "type": "function"
    },
    {
      "inputs": [
        {
          "internalType": "uint256",
          "name": "value",
          "type": "uint256"
        },
        {
          "internalType": "bytes32",
          "name": "assetHash",
          "type": "bytes32"
        }
      ],
      "name": "mintNPCRewardNFT",
      "outputs": [
        {
          "internalType": "uint256",
          "name": "",
          "type": "uint256"
        }
      ],
      "stateMutability": "nonpayable",
      "type": "function"
    },
    {
      "inputs": [],
      "name": "name",
      "outputs": [
        {
          "internalType": "string",
          "name": "",
          "type": "string"
        }
      ],
      "stateMutability": "view",
      "type": "function"
    },
    {
      "inputs": [],
      "name": "owner",
      "outputs": [
        {
          "internalType": "address",
          "name": "",
          "type": "address"
        }
      ],
      "stateMutability": "view",
      "type": "function"
    },
    {
      "inputs": [
        {
          "internalType": "uint256",
          "name": "tokenId",
          "type": "uint256"
        }
      ],
      "name": "ownerOf",
      "outputs": [
        {
          "internalType": "address",
          "name": "",
          "type": "address"
        }
      ],
      "stateMutability": "view",
      "type": "function"
    },
    {
      "inputs": [
        {
          "internalType": "uint256",
          "name": "value",
          "type": "uint256"
        },
        {
          "internalType": "string",
          "name": "documentURI",
          "type": "string"
        },
        {
          "internalType": "bytes32",
          "name": "assetHash",
          "type": "bytes32"
        }
      ],
      "name": "publishJob",
      "outputs": [],
      "stateMutability": "payable",
      "type": "function"
    },
    {
      "inputs": [],
      "name": "renounceOwnership",
      "outputs": [],
      "stateMutability": "nonpayable",
      "type": "function"
    },
    {
      "inputs": [
        {
          "internalType": "address",
          "name": "from",
          "type": "address"
        },
        {
          "internalType": "address",
          "name": "to",
          "type": "address"
        },
        {
          "internalType": "uint256",
          "name": "tokenId",
          "type": "uint256"
        }
      ],
      "name": "safeTransferFrom",
      "outputs": [],
      "stateMutability": "nonpayable",
      "type": "function"
    },
    {
      "inputs": [
        {
          "internalType": "address",
          "name": "from",
          "type": "address"
        },
        {
          "internalType": "address",
          "name": "to",
          "type": "address"
        },
        {
          "internalType": "uint256",
          "name": "tokenId",
          "type": "uint256"
        },
        {
          "internalType": "bytes",
          "name": "data",
          "type": "bytes"
        }
      ],
      "name": "safeTransferFrom",
      "outputs": [],
      "stateMutability": "nonpayable",
      "type": "function"
    },
    {
      "inputs": [
        {
          "internalType": "address",
          "name": "operator",
          "type": "address"
        },
        {
          "internalType": "bool",
          "name": "approved",
          "type": "bool"
        }
      ],
      "name": "setApprovalForAll",
      "outputs": [],
      "stateMutability": "nonpayable",
      "type": "function"
    },
    {
      "inputs": [
        {
          "internalType": "bytes4",
          "name": "interfaceId",
          "type": "bytes4"
        }
      ],
      "name": "supportsInterface",
      "outputs": [
        {
          "internalType": "bool",
          "name": "",
          "type": "bool"
        }
      ],
      "stateMutability": "view",
      "type": "function"
    },
    {
      "inputs": [],
      "name": "symbol",
      "outputs": [
        {
          "internalType": "string",
          "name": "",
          "type": "string"
        }
      ],
      "stateMutability": "view",
      "type": "function"
    },
    {
      "inputs": [
        {
          "internalType": "uint256",
          "name": "tokenId",
          "type": "uint256"
        }
      ],
      "name": "tokenURI",
      "outputs": [
        {
          "internalType": "string",
          "name": "",
          "type": "string"
        }
      ],
      "stateMutability": "view",
      "type": "function"
    },
    {
      "inputs": [
        {
          "internalType": "uint256",
          "name": "tokenId",
          "type": "uint256"
        },
        {
          "internalType": "address",
          "name": "to",
          "type": "address"
        }
      ],
      "name": "transferAssetNFT",
      "outputs": [],
      "stateMutability": "nonpayable",
      "type": "function"
    },
    {
      "inputs": [
        {
          "internalType": "address",
          "name": "from",
          "type": "address"
        },
        {
          "internalType": "address",
          "name": "to",
          "type": "address"
        },
        {
          "internalType": "uint256",
          "name": "tokenId",
          "type": "uint256"
        }
      ],
      "name": "transferFrom",
      "outputs": [],
      "stateMutability": "nonpayable",
      "type": "function"
    },
    {
      "inputs": [
        {
          "internalType": "address",
          "name": "newOwner",
          "type": "address"
        }
      ],
      "name": "transferOwnership",
      "outputs": [],
      "stateMutability": "nonpayable",
      "type": "function"
    }
  ],
  "bytecode": "0x608060405234801561000f575f5ffd5b5060405161499238038061499283398101604081905261002e9161011e565b806040518060400160405280600d81526020016c145d595cdd151bdad95b939195609a1b815250604051806040016040528060048152602001631353919560e21b815250815f908161008091906101e3565b50600161008d82826101e3565b5050506001600160a01b0381166100bd57604051631e4fbdf760e01b81525f600482015260240160405180910390fd5b6100c6816100cd565b505061029d565b600780546001600160a01b038381166001600160a01b0319831681179093556040519116919082907f8be0079c531659141344cd1fd0a4f28419497f9722a3daafe3b4186f6b6457e0905f90a35050565b5f6020828403121561012e575f5ffd5b81516001600160a01b0381168114610144575f5ffd5b9392505050565b634e487b7160e01b5f52604160045260245ffd5b600181811c9082168061017357607f821691505b60208210810361019157634e487b7160e01b5f52602260045260245ffd5b50919050565b601f8211156101de57805f5260205f20601f840160051c810160208510156101bc5750805b601f840160051c820191505b818110156101db575f81556001016101c8565b50505b505050565b81516001600160401b038111156101fc576101fc61014b565b6102108161020a845461015f565b84610197565b6020601f821160018114610242575f831561022b5750848201515b5f19600385901b1c1916600184901b1784556101db565b5f84815260208120601f198516915b828110156102715787850151825560209485019460019092019101610251565b508482101561028e57868401515f19600387901b60f8161c191681555b50505050600190811b01905550565b6146e8806102aa5f395ff3fe608060405260043610610212575f3560e01c80637d1108f51161011e578063d44b0b05116100a8578063f5aec88c1161006d578063f5aec88c14610665578063fc2168b214610699578063fc6180a6146106b8578063fdd129e5146106d7578063ff715c3314610703575f5ffd5b8063d44b0b05146105bb578063d9698312146105e7578063dc2041a514610608578063e985e9c514610627578063f2fde38b14610646575f5ffd5b806395d89b41116100ee57806395d89b411461052b578063a1c0d32f1461053f578063a22cb4651461055e578063b88d4fde1461057d578063c87b56dd1461059c575f5ffd5b80637d1108f51461049757806387db5705146104c35780638da5cb5b146104ef57806390715dd31461050c575f5ffd5b806342842e0e1161019f5780636352211e1161016f5780636352211e1461040657806370a0823114610425578063715018a6146104445780637756f237146104585780637c6be07b1461046b575f5ffd5b806342842e0e1461037057806343adc6be1461038f578063468bc22d146103bb5780634cac35c6146103da575f5ffd5b806318a78a8a116101e557806318a78a8a146102c357806323b872dd146102e457806330397b0b146103035780633ee972361461031757806340881a7314610344575f5ffd5b806301ffc9a71461021657806306fdde031461024a578063081812fc1461026b578063095ea7b3146102a2575b5f5ffd5b348015610221575f5ffd5b50610235610230366004613cc6565b610722565b60405190151581526020015b60405180910390f35b348015610255575f5ffd5b5061025e61074c565b6040516102419190613d0f565b348015610276575f5ffd5b5061028a610285366004613d21565b6107db565b6040516001600160a01b039091168152602001610241565b3480156102ad575f5ffd5b506102c16102bc366004613d53565b610802565b005b3480156102ce575f5ffd5b506102d7610811565b6040516102419190613de3565b3480156102ef575f5ffd5b506102c16102fe366004613e46565b610a99565b34801561030e575f5ffd5b506102d7610b27565b348015610322575f5ffd5b50610336610331366004613e80565b610d40565b604051908152602001610241565b34801561034f575f5ffd5b5061036361035e366004613d21565b610e68565b6040516102419190613ea0565b34801561037b575f5ffd5b506102c161038a366004613e46565b610f21565b34801561039a575f5ffd5b506103ae6103a9366004613d21565b610f40565b6040516102419190613f15565b3480156103c6575f5ffd5b506102c16103d5366004613d21565b61112f565b3480156103e5575f5ffd5b506103f96103f4366004613d21565b6112c1565b6040516102419190613f27565b348015610411575f5ffd5b5061028a610420366004613d21565b61142a565b348015610430575f5ffd5b5061033661043f366004613f39565b611434565b34801561044f575f5ffd5b506102c1611479565b6102c1610466366004613ff5565b61148c565b348015610476575f5ffd5b5061048a610485366004613f39565b6117de565b6040516102419190614041565b3480156104a2575f5ffd5b506104b66104b1366004613d21565b6119d9565b60405161024191906140ef565b3480156104ce575f5ffd5b506104e26104dd366004613f39565b611c1c565b6040516102419190614101565b3480156104fa575f5ffd5b506007546001600160a01b031661028a565b348015610517575f5ffd5b50610336610526366004614158565b611f2d565b348015610536575f5ffd5b5061025e61211f565b34801561054a575f5ffd5b506102c1610559366004613d21565b61212e565b348015610569575f5ffd5b506102c16105783660046141cb565b6122a8565b348015610588575f5ffd5b506102c1610597366004614204565b6122b3565b3480156105a7575f5ffd5b5061025e6105b6366004613d21565b6122cb565b3480156105c6575f5ffd5b506105da6105d5366004613f39565b6123d6565b6040516102419190614267565b3480156105f2575f5ffd5b506105fb6126e7565b60405161024191906142ee565b348015610613575f5ffd5b506102c1610622366004613d21565b61290c565b348015610632575f5ffd5b50610235610641366004614345565b612c99565b348015610651575f5ffd5b506102c1610660366004613f39565b612cc6565b348015610670575f5ffd5b5061033661067f366004613f39565b6001600160a01b03165f908152600c602052604090205490565b3480156106a4575f5ffd5b506102c16106b3366004613d21565b612d03565b3480156106c3575f5ffd5b506103366106d2366004614376565b612f3c565b3480156106e2575f5ffd5b506106f66106f1366004613d21565b613097565b60405161024191906143d3565b34801561070e575f5ffd5b506102c161071d3660046143e5565b6131ff565b5f6001600160e01b03198216632483248360e11b148061074657506107468261336f565b92915050565b60605f805461075a90614406565b80601f016020809104026020016040519081016040528092919081815260200182805461078690614406565b80156107d15780601f106107a8576101008083540402835291602001916107d1565b820191905f5260205f20905b8154815290600101906020018083116107b457829003601f168201915b5050505050905090565b5f6107e5826133be565b505f828152600460205260409020546001600160a01b0316610746565b61080d8282336133f5565b5050565b6010546060905f805b82811015610898575f8181526011602052604090206005015460ff1615801561085957505f81815260116020526040902060050154610100900460ff16155b801561087d57505f818152601160205260409020600101546001600160a01b031615155b15610890578161088c81614452565b9250505b60010161081a565b505f816001600160401b038111156108b2576108b2613f52565b6040519080825280602002602001820160405280156108eb57816020015b6108d8613c4a565b8152602001906001900390816108d05790505b5090505f805b84811015610a8f575f8181526011602052604090206005015460ff1615801561093057505f81815260116020526040902060050154610100900460ff16155b801561095457505f818152601160205260409020600101546001600160a01b031615155b15610a87575f81815260116020908152604091829020825160e0810184528154815260018201546001600160a01b0316928101929092526002810154928201929092526003820180549192916060840191906109af90614406565b80601f01602080910402602001604051908101604052809291908181526020018280546109db90614406565b8015610a265780601f106109fd57610100808354040283529160200191610a26565b820191905f5260205f20905b815481529060010190602001808311610a0957829003601f168201915b50505091835250506004820154602082015260059091015460ff808216151560408401526101009091041615156060909101528351849084908110610a6d57610a6d61446a565b60200260200101819052508180610a8390614452565b9250505b6001016108f1565b5090949350505050565b6001600160a01b038216610ac757604051633250574960e11b81525f60048201526024015b60405180910390fd5b5f610ad3838333613402565b9050836001600160a01b0316816001600160a01b031614610b21576040516364283d7b60e01b81526001600160a01b0380861660048301526024820184905282166044820152606401610abe565b50505050565b335f908152601260209081526040808320805482518185028101850190935280835260609493830182828015610b7a57602002820191905f5260205f20905b815481526020019060010190808311610b66575b505050505090505f81516001600160401b03811115610b9b57610b9b613f52565b604051908082528060200260200182016040528015610bd457816020015b610bc1613c4a565b815260200190600190039081610bb95790505b5090505f5b8251811015610d395760115f848381518110610bf757610bf761446a565b602002602001015181526020019081526020015f206040518060e00160405290815f8201548152602001600182015f9054906101000a90046001600160a01b03166001600160a01b03166001600160a01b0316815260200160028201548152602001600382018054610c6890614406565b80601f0160208091040260200160405190810160405280929190818152602001828054610c9490614406565b8015610cdf5780601f10610cb657610100808354040283529160200191610cdf565b820191905f5260205f20905b815481529060010190602001808311610cc257829003601f168201915b50505091835250506004820154602082015260059091015460ff808216151560408401526101009091041615156060909101528251839083908110610d2657610d2661446a565b6020908102919091010152600101610bd9565b5092915050565b5f5f8311610d905760405162461bcd60e51b815260206004820152601c60248201527f56616c7565206d7573742062652067726561746572207468616e2030000000006044820152606401610abe565b600880545f9182610da083614452565b909155506040805160608101825282815260208082018881528284018881525f868152600a845285812085518155925160018401559051600290920191909155338152600c90915291822080549394509092879290610e0090849061447e565b9091555050335f818152600e6020908152604082208054600181018255908352912001839055610e3090836134ef565b335f818152600c60209081526040918290209151915482525f5160206146935f395f51905f52910160405180910390a2509392505050565b610e8960405180606001604052805f81526020015f81526020015f81525090565b5f610e9383613550565b6001600160a01b031603610ee95760405162461bcd60e51b815260206004820152601960248201527f4e50432072657761726420646f6573206e6f74206578697374000000000000006044820152606401610abe565b505f908152600a6020908152604091829020825160608101845281548152600182015492810192909252600201549181019190915290565b610f3b83838360405180602001604052805f8152506122b3565b505050565b610f6f6040518060a001604052805f8152602001606081526020015f81526020015f8152602001606081525090565b5f610f7983613550565b6001600160a01b031603610fcf5760405162461bcd60e51b815260206004820152601860248201527f506f7274666f6c696f20646f6573206e6f7420657869737400000000000000006044820152606401610abe565b600b5f8381526020019081526020015f206040518060a00160405290815f820154815260200160018201805461100490614406565b80601f016020809104026020016040519081016040528092919081815260200182805461103090614406565b801561107b5780601f106110525761010080835404028352916020019161107b565b820191905f5260205f20905b81548152906001019060200180831161105e57829003601f168201915b5050505050815260200160028201548152602001600382015481526020016004820180546110a890614406565b80601f01602080910402602001604051908101604052809291908181526020018280546110d490614406565b801561111f5780601f106110f65761010080835404028352916020019161111f565b820191905f5260205f20905b81548152906001019060200180831161110257829003601f168201915b5050505050815250509050919050565b5f81815260146020526040902060018101546001600160a01b03166111665760405162461bcd60e51b8152600401610abe90614491565b60038101546001600160a01b031633146111c25760405162461bcd60e51b815260206004820152601a60248201527f4f6e6c79206a6f62206f776e65722063616e20617070726f76650000000000006044820152606401610abe565b6007810154610100900460ff16156112145760405162461bcd60e51b8152602060048201526015602482015274129bd888185b1c9958591e4818dbdb5c1b195d1959605a1b6044820152606401610abe565b60078101805461010061ff0019918216811790925560028301545f9081526011602090815260408083206005018054909416909417909255600484015460018501546001600160a01b03168252600c90925291822080549192909161127a90849061447e565b909155505060018101546001600160a01b03165f818152600c60209081526040918290209151915482525f5160206146935f395f51905f5291015b60405180910390a25050565b6112c9613c4a565b5f828152601160205260409020600101546001600160a01b03166113245760405162461bcd60e51b8152602060048201526012602482015271129bd888191bd95cc81b9bdd08195e1a5cdd60721b6044820152606401610abe565b5f82815260116020908152604091829020825160e0810184528154815260018201546001600160a01b03169281019290925260028101549282019290925260038201805491929160608401919061137a90614406565b80601f01602080910402602001604051908101604052809291908181526020018280546113a690614406565b80156113f15780601f106113c8576101008083540402835291602001916113f1565b820191905f5260205f20905b8154815290600101906020018083116113d457829003601f168201915b50505091835250506004820154602082015260059091015460ff8082161515604084015261010090910416151560609091015292915050565b5f610746826133be565b5f6001600160a01b03821661145e576040516322718ad960e21b81525f6004820152602401610abe565b506001600160a01b03165f9081526003602052604090205490565b61148161356a565b61148a5f613597565b565b5f8251116114ac5760405162461bcd60e51b8152600401610abe906144c8565b5f83116114fb5760405162461bcd60e51b815260206004820181905260248201527f4a6f622076616c7565206d7573742062652067726561746572207468616e20306044820152606401610abe565b66071afd498d0000348111156115465760405162461bcd60e51b815260206004820152601060248201526f496e73756666696369656e742066656560801b6044820152606401610abe565b5f6115596007546001600160a01b031690565b90506001600160a01b0381166115a95760405162461bcd60e51b8152602060048201526015602482015274496e76616c6964206f776e6572206164647265737360581b6044820152606401610abe565b5f816001600160a01b0316836040515f6040518083038185875af1925050503d805f81146115f2576040519150601f19603f3d011682016040523d82523d5f602084013e6115f7565b606091505b505090508061163e5760405162461bcd60e51b8152602060048201526013602482015272119959481d1c985b9cd9995c8819985a5b1959606a1b6044820152606401610abe565b823411156116dc575f61165184346144ff565b6040519091505f90339083908381818185875af1925050503d805f8114611693576040519150601f19603f3d011682016040523d82523d5f602084013e611698565b606091505b50509050806116d95760405162461bcd60e51b815260206004820152600d60248201526c1499599d5b990819985a5b1959609a1b6044820152606401610abe565b50505b601080545f91826116ec83614452565b909155506040805160e0810182528281523360208083019182528284018c8152606084018c8152608085018c90525f60a0860181905260c086018190528781526011909352949091208351815591516001830180546001600160a01b0319166001600160a01b03909216919091179055516002820155915192935091829190600382019061177a9082614556565b506080820151600482015560a08201516005909101805460c09093015115156101000261ff00199215159290921661ffff199093169290921717905550335f9081526012602090815260408220805460018101825590835291200155505050505050565b6001600160a01b0381165f908152600e6020908152604080832080548251818502810185019093528083526060949383018282801561183a57602002820191905f5260205f20905b815481526020019060010190808311611826575b509394505f935083925050505b82518110156118a057846001600160a01b031661187c84838151811061186f5761186f61446a565b6020026020010151613550565b6001600160a01b031603611898578161189481614452565b9250505b600101611847565b505f816001600160401b038111156118ba576118ba613f52565b60405190808252806020026020018201604052801561190c57816020015b6118f960405180606001604052805f81526020015f81526020015f81525090565b8152602001906001900390816118d85790505b5090505f805b84518110156119ce57866001600160a01b031661193a86838151811061186f5761186f61446a565b6001600160a01b0316036119c657600a5f86838151811061195d5761195d61446a565b602002602001015181526020019081526020015f206040518060600160405290815f8201548152602001600182015481526020016002820154815250508383815181106119ac576119ac61446a565b602002602001018190525081806119c290614452565b9250505b600101611912565b509095945050505050565b611a086040518060a001604052805f8152602001606081526020015f8152602001606081526020015f81525090565b5f611a1283613550565b6001600160a01b031603611a5f5760405162461bcd60e51b8152602060048201526014602482015273151bdad95b88191bd95cc81b9bdd08195e1a5cdd60621b6044820152606401610abe565b5f82815260096020526040902060040154611abc5760405162461bcd60e51b815260206004820152601960248201527f546f6b656e206973206e6f7420616e204173736574204e4654000000000000006044820152606401610abe565b60095f8381526020019081526020015f206040518060a00160405290815f8201548152602001600182018054611af190614406565b80601f0160208091040260200160405190810160405280929190818152602001828054611b1d90614406565b8015611b685780601f10611b3f57610100808354040283529160200191611b68565b820191905f5260205f20905b815481529060010190602001808311611b4b57829003601f168201915b5050505050815260200160028201548152602001600382018054611b8b90614406565b80601f0160208091040260200160405190810160405280929190818152602001828054611bb790614406565b8015611c025780601f10611bd957610100808354040283529160200191611c02565b820191905f5260205f20905b815481529060010190602001808311611be557829003601f168201915b505050505081526020016004820154815250509050919050565b6001600160a01b0381165f908152600d60209081526040808320805482518185028101850190935280835260609493830182828015611c7857602002820191905f5260205f20905b815481526020019060010190808311611c64575b509394505f935083925050505b8251811015611cd157846001600160a01b0316611cad84838151811061186f5761186f61446a565b6001600160a01b031603611cc95781611cc581614452565b9250505b600101611c85565b505f816001600160401b03811115611ceb57611ceb613f52565b604051908082528060200260200182016040528015611d4b57816020015b611d386040518060a001604052805f8152602001606081526020015f8152602001606081526020015f81525090565b815260200190600190039081611d095790505b5090505f805b84518110156119ce57866001600160a01b0316611d7986838151811061186f5761186f61446a565b6001600160a01b031603611f255760095f868381518110611d9c57611d9c61446a565b602002602001015181526020019081526020015f206040518060a00160405290815f8201548152602001600182018054611dd590614406565b80601f0160208091040260200160405190810160405280929190818152602001828054611e0190614406565b8015611e4c5780601f10611e2357610100808354040283529160200191611e4c565b820191905f5260205f20905b815481529060010190602001808311611e2f57829003601f168201915b5050505050815260200160028201548152602001600382018054611e6f90614406565b80601f0160208091040260200160405190810160405280929190818152602001828054611e9b90614406565b8015611ee65780601f10611ebd57610100808354040283529160200191611ee6565b820191905f5260205f20905b815481529060010190602001808311611ec957829003601f168201915b50505050508152602001600482015481525050838381518110611f0b57611f0b61446a565b60200260200101819052508180611f2190614452565b9250505b600101611d51565b5f5f855111611f4e5760405162461bcd60e51b8152600401610abe906144c8565b5f8211611f9d5760405162461bcd60e51b815260206004820152601c60248201527f5072696365206d7573742062652067726561746572207468616e2030000000006044820152606401610abe565b335f908152600c6020526040902054821115611ffb5760405162461bcd60e51b815260206004820152601f60248201527f496e73756666696369656e7420746f6b656e7320666f72206465706f736974006044820152606401610abe565b600880545f918261200b83614452565b909155506040805160a08101825282815260208082018a81528284018a905260608301899052608083018890525f85815260099092529290208151815591519293509182919060018201906120609082614556565b50604082015160028201556060820151600382019061207f9082614556565b5060809190910151600490910155335f908152600c6020526040812080548692906120ab9084906144ff565b9091555050335f818152600d60209081526040822080546001810182559083529120018390556120db90836134ef565b6120e582886135e8565b335f818152600c60209081526040918290209151915482525f5160206146935f395f51905f52910160405180910390a25095945050505050565b60606001805461075a90614406565b5f81815260146020526040902060018101546001600160a01b03166121655760405162461bcd60e51b8152600401610abe90614491565b60018101546001600160a01b031633146121cb5760405162461bcd60e51b815260206004820152602160248201527f4f6e6c792061737369676e656420776f726b65722063616e20636f6d706c65746044820152606560f81b6064820152608401610abe565b6007810154610100900460ff161561221d5760405162461bcd60e51b8152602060048201526015602482015274129bd888185b1c9958591e4818dbdb5c1b195d1959605a1b6044820152606401610abe565b60078101805461010061ff0019918216811790925560028301545f90815260116020908152604080832060050180549094169094179092556004840154338252600c90925291822080549192909161227690849061447e565b9091555050335f818152600c60209081526040918290209151915482525f5160206146935f395f51905f5291016112b5565b61080d338383613637565b6122be848484610a99565b610b2133858585856136d5565b60606122d6826133be565b505f82815260066020526040812080546122ef90614406565b80601f016020809104026020016040519081016040528092919081815260200182805461231b90614406565b80156123665780601f1061233d57610100808354040283529160200191612366565b820191905f5260205f20905b81548152906001019060200180831161234957829003601f168201915b505050505090505f61238260408051602081019091525f815290565b905080515f03612393575092915050565b8151156123c55780826040516020016123ad929190614627565b60405160208183030381529060405292505050919050565b6123ce846137fd565b949350505050565b6001600160a01b0381165f908152600f6020908152604080832080548251818502810185019093528083526060949383018282801561243257602002820191905f5260205f20905b81548152602001906001019080831161241e575b509394505f935083925050505b825181101561248b57846001600160a01b031661246784838151811061186f5761186f61446a565b6001600160a01b031603612483578161247f81614452565b9250505b60010161243f565b505f816001600160401b038111156124a5576124a5613f52565b60405190808252806020026020018201604052801561250557816020015b6124f26040518060a001604052805f8152602001606081526020015f81526020015f8152602001606081525090565b8152602001906001900390816124c35790505b5090505f805b84518110156119ce57866001600160a01b031661253386838151811061186f5761186f61446a565b6001600160a01b0316036126df57600b5f8683815181106125565761255661446a565b602002602001015181526020019081526020015f206040518060a00160405290815f820154815260200160018201805461258f90614406565b80601f01602080910402602001604051908101604052809291908181526020018280546125bb90614406565b80156126065780601f106125dd57610100808354040283529160200191612606565b820191905f5260205f20905b8154815290600101906020018083116125e957829003601f168201915b50505050508152602001600282015481526020016003820154815260200160048201805461263390614406565b80601f016020809104026020016040519081016040528092919081815260200182805461265f90614406565b80156126aa5780601f10612681576101008083540402835291602001916126aa565b820191905f5260205f20905b81548152906001019060200180831161268d57829003601f168201915b5050505050815250508383815181106126c5576126c561446a565b602002602001018190525081806126db90614452565b9250505b60010161250b565b335f90815260156020908152604080832080548251818502810185019093528083526060949383018282801561273a57602002820191905f5260205f20905b815481526020019060010190808311612726575b505050505090505f81516001600160401b0381111561275b5761275b613f52565b60405190808252806020026020018201604052801561279457816020015b612781613c8e565b8152602001906001900390816127795790505b5090505f5b8251811015610d395760145f8483815181106127b7576127b761446a565b60209081029190910181015182528181019290925260409081015f208151606080820184528254825260018301546001600160a01b0390811683870152845160e08101865260028501805482526003860154909216968101969096526004840154868601526005840180549396949587019493919284019161283890614406565b80601f016020809104026020016040519081016040528092919081815260200182805461286490614406565b80156128af5780601f10612886576101008083540402835291602001916128af565b820191905f5260205f20905b81548152906001019060200180831161289257829003601f168201915b50505091835250506004820154602082015260059091015460ff8082161515604084015261010090910416151560609091015290525082518390839081106128f9576128f961446a565b6020908102919091010152600101612799565b5f81815260116020526040902060018101546001600160a01b03166129685760405162461bcd60e51b8152602060048201526012602482015271129bd888191bd95cc81b9bdd08195e1a5cdd60721b6044820152606401610abe565b600581015460ff16156129b15760405162461bcd60e51b81526020600482015260116024820152702537b11030b63932b0b23c903a30b5b2b760791b6044820152606401610abe565b6005810154610100900460ff1615612a025760405162461bcd60e51b8152602060048201526014602482015273129bd888185b1c9958591e48199a5b9a5cda195960621b6044820152606401610abe565b6001810154336001600160a01b0390911603612a605760405162461bcd60e51b815260206004820152601860248201527f43616e6e6f742074616b6520796f7572206f776e206a6f6200000000000000006044820152606401610abe565b60058101805460ff19166001179055601380545f9182612a7f83614452565b9190505590505f6040518060600160405280838152602001336001600160a01b03168152602001846040518060e00160405290815f8201548152602001600182015f9054906101000a90046001600160a01b03166001600160a01b03166001600160a01b0316815260200160028201548152602001600382018054612b0390614406565b80601f0160208091040260200160405190810160405280929190818152602001828054612b2f90614406565b8015612b7a5780601f10612b5157610100808354040283529160200191612b7a565b820191905f5260205f20905b815481529060010190602001808311612b5d57829003601f168201915b505050918352505060048281015460208084019190915260059384015460ff8082161515604080870191909152610100909204161515606094850152949095525f8881526014865284902086518155868601516001820180546001600160a01b03199081166001600160a01b0393841617909155888701518051600285019081559881015160038501805490931693169290921790559485015191810191909155908301519495508594909391840190612c349082614556565b506080820151600482015560a08201516005909101805460c09093015115156101000261ff00199215159290921661ffff19909316929092171790555050335f9081526015602090815260408220805460018101825590835291200191909155505050565b6001600160a01b039182165f90815260056020908152604080832093909416825291909152205460ff1690565b612cce61356a565b6001600160a01b038116612cf757604051631e4fbdf760e01b81525f6004820152602401610abe565b612d0081613597565b50565b5f612d0d82613550565b6001600160a01b031603612d5a5760405162461bcd60e51b8152602060048201526014602482015273105cdcd95d08191bd95cc81b9bdd08195e1a5cdd60621b6044820152606401610abe565b5f612d6482613550565b9050336001600160a01b03821603612dbe5760405162461bcd60e51b815260206004820152601960248201527f43616e6e6f742062757920796f7572206f776e206173736574000000000000006044820152606401610abe565b33612e035760405162461bcd60e51b8152602060048201526015602482015274496e76616c6964206275796572206164647265737360581b6044820152606401610abe565b5f8281526009602090815260408083206004810154338552600c909352922054811115612e725760405162461bcd60e51b815260206004820181905260248201527f496e73756666696369656e7420746f6b656e7320746f206275792061737365746044820152606401610abe565b335f908152600c602052604081208054839290612e909084906144ff565b90915550506001600160a01b0383165f908152600c602052604081208054839290612ebc90849061447e565b90915550612ecd905083338661386e565b335f818152600c60209081526040918290209151915482525f5160206146935f395f51905f52910160405180910390a26001600160a01b0383165f818152600c60209081526040918290209151915482525f5160206146935f395f51905f52910160405180910390a250505050565b5f5f845111612f5d5760405162461bcd60e51b8152600401610abe906144c8565b5f8511612fac5760405162461bcd60e51b815260206004820152601c60248201527f56616c7565206d7573742062652067726561746572207468616e2030000000006044820152606401610abe565b600880545f9182612fbc83614452565b909155506040805160a08101825282815260208082018981528284018b905260608301899052608083018890525f858152600b9092529290208151815591519293509182919060018201906130119082614556565b5060408201516002820155606082015160038201556080820151600482019061303a9082614556565b5050335f908152600c6020526040812080548a935090919061305d90849061447e565b9091555050335f818152600f602090815260408220805460018101825590835291200183905561308d90836134ef565b6120e582876135e8565b61309f613c8e565b5f828152601460205260409020600101546001600160a01b03166130d55760405162461bcd60e51b8152600401610abe90614491565b5f828152601460209081526040918290208251606080820185528254825260018301546001600160a01b0390811683860152855160e0810187526002850180548252600386015490921695810195909552600484015485870152600584018054939694959487019493919284019161314c90614406565b80601f016020809104026020016040519081016040528092919081815260200182805461317890614406565b80156131c35780601f1061319a576101008083540402835291602001916131c3565b820191905f5260205f20905b8154815290600101906020018083116131a657829003601f168201915b50505091835250506004820154602082015260059091015460ff8082161515604084015261010090910416151560609091015290525092915050565b5f61320983613550565b6001600160a01b0316036132565760405162461bcd60e51b8152602060048201526014602482015273105cdcd95d08191bd95cc81b9bdd08195e1a5cdd60621b6044820152606401610abe565b336132608361142a565b6001600160a01b0316146132b65760405162461bcd60e51b815260206004820152601760248201527f4f6e6c79206f776e65722063616e207472616e736665720000000000000000006044820152606401610abe565b6001600160a01b03811661330c5760405162461bcd60e51b815260206004820152601f60248201527f43616e6e6f74207472616e7366657220746f207a65726f2061646472657373006044820152606401610abe565b336001600160a01b038216036133645760405162461bcd60e51b815260206004820152601b60248201527f43616e6e6f74207472616e7366657220746f20796f757273656c6600000000006044820152606401610abe565b61080d33828461386e565b5f6001600160e01b031982166380ac58cd60e01b148061339f57506001600160e01b03198216635b5e139f60e01b145b8061074657506301ffc9a760e01b6001600160e01b0319831614610746565b5f5f6133c983613550565b90506001600160a01b03811661074657604051637e27328960e01b815260048101849052602401610abe565b610f3b838383600161391b565b5f5f61340d84613550565b90506001600160a01b0383161561342957613429818486613a1f565b6001600160a01b03811615613463576134445f855f5f61391b565b6001600160a01b0381165f90815260036020526040902080545f190190555b6001600160a01b03851615613491576001600160a01b0385165f908152600360205260409020805460010190555b5f8481526002602052604080822080546001600160a01b0319166001600160a01b0389811691821790925591518793918516917fddf252ad1be2c89b69c2b068fc378daa952ba7f163c4a11628f55a4df523b3ef91a4949350505050565b6001600160a01b03821661351857604051633250574960e11b81525f6004820152602401610abe565b5f61352483835f613402565b90506001600160a01b03811615610f3b576040516339e3563760e11b81525f6004820152602401610abe565b5f908152600260205260409020546001600160a01b031690565b6007546001600160a01b0316331461148a5760405163118cdaa760e01b8152336004820152602401610abe565b600780546001600160a01b038381166001600160a01b0319831681179093556040519116919082907f8be0079c531659141344cd1fd0a4f28419497f9722a3daafe3b4186f6b6457e0905f90a35050565b5f8281526006602052604090206135ff8282614556565b506040518281527ff8e1a15aba9398e019f0b49df1a4fde98ee17ae345cb5f6b5e2c27f5033e8ce79060200160405180910390a15050565b6001600160a01b03821661366957604051630b61174360e31b81526001600160a01b0383166004820152602401610abe565b6001600160a01b038381165f81815260056020908152604080832094871680845294825291829020805460ff191686151590811790915591519182527f17307eab39ab6107e8899845ad3d59bd9653f200f220920489ca2b5937696c31910160405180910390a3505050565b6001600160a01b0383163b156137f657604051630a85bd0160e11b81526001600160a01b0384169063150b7a029061371790889088908790879060040161463b565b6020604051808303815f875af1925050508015613751575060408051601f3d908101601f1916820190925261374e91810190614677565b60015b6137b8573d80801561377e576040519150601f19603f3d011682016040523d82523d5f602084013e613783565b606091505b5080515f036137b057604051633250574960e11b81526001600160a01b0385166004820152602401610abe565b805160208201fd5b6001600160e01b03198116630a85bd0160e11b146137f457604051633250574960e11b81526001600160a01b0385166004820152602401610abe565b505b5050505050565b6060613808826133be565b505f61381e60408051602081019091525f815290565b90505f81511161383c5760405180602001604052805f815250613867565b8061384684613a83565b604051602001613857929190614627565b6040516020818303038152906040525b9392505050565b6001600160a01b03821661389757604051633250574960e11b81525f6004820152602401610abe565b5f6138a383835f613402565b90506001600160a01b0381166138cf57604051637e27328960e01b815260048101839052602401610abe565b836001600160a01b0316816001600160a01b031614610b21576040516364283d7b60e01b81526001600160a01b0380861660048301526024820184905282166044820152606401610abe565b808061392f57506001600160a01b03821615155b156139f0575f61393e846133be565b90506001600160a01b0383161580159061396a5750826001600160a01b0316816001600160a01b031614155b801561397d575061397b8184612c99565b155b156139a65760405163a9fbf51f60e01b81526001600160a01b0384166004820152602401610abe565b81156139ee5783856001600160a01b0316826001600160a01b03167f8c5be1e5ebec7d5bd14f71427d1e84f3dd0314c0f7b2291e5b200ac8c7c3b92560405160405180910390a45b505b50505f90815260046020526040902080546001600160a01b0319166001600160a01b0392909216919091179055565b613a2a838383613b12565b610f3b576001600160a01b038316613a5857604051637e27328960e01b815260048101829052602401610abe565b60405163177e802f60e01b81526001600160a01b038316600482015260248101829052604401610abe565b60605f613a8f83613b73565b60010190505f816001600160401b03811115613aad57613aad613f52565b6040519080825280601f01601f191660200182016040528015613ad7576020820181803683370190505b5090508181016020015b5f19016f181899199a1a9b1b9c1cb0b131b232b360811b600a86061a8153600a8504945084613ae157509392505050565b5f6001600160a01b038316158015906123ce5750826001600160a01b0316846001600160a01b03161480613b4b5750613b4b8484612c99565b806123ce5750505f908152600460205260409020546001600160a01b03908116911614919050565b5f8072184f03e93ff9f4daa797ed6e38ed64bf6a1f0160401b8310613bb15772184f03e93ff9f4daa797ed6e38ed64bf6a1f0160401b830492506040015b6d04ee2d6d415b85acef81000000008310613bdd576d04ee2d6d415b85acef8100000000830492506020015b662386f26fc100008310613bfb57662386f26fc10000830492506010015b6305f5e1008310613c13576305f5e100830492506008015b6127108310613c2757612710830492506004015b60648310613c39576064830492506002015b600a83106107465760010192915050565b6040518060e001604052805f81526020015f6001600160a01b031681526020015f8152602001606081526020015f81526020015f151581526020015f151581525090565b604080516060810182525f8082526020820152908101613cac613c4a565b905290565b6001600160e01b031981168114612d00575f5ffd5b5f60208284031215613cd6575f5ffd5b813561386781613cb1565b5f81518084528060208401602086015e5f602082860101526020601f19601f83011685010191505092915050565b602081525f6138676020830184613ce1565b5f60208284031215613d31575f5ffd5b5035919050565b80356001600160a01b0381168114613d4e575f5ffd5b919050565b5f5f60408385031215613d64575f5ffd5b613d6d83613d38565b946020939093013593505050565b8051825260018060a01b036020820151166020830152604081015160408301525f606082015160e06060850152613db560e0850182613ce1565b90506080830151608085015260a0830151151560a085015260c0830151151560c08501528091505092915050565b5f602082016020835280845180835260408501915060408160051b8601019250602086015f5b82811015613e3a57603f19878603018452613e25858351613d7b565b94506020938401939190910190600101613e09565b50929695505050505050565b5f5f5f60608486031215613e58575f5ffd5b613e6184613d38565b9250613e6f60208501613d38565b929592945050506040919091013590565b5f5f60408385031215613e91575f5ffd5b50508035926020909101359150565b81518152602080830151908201526040808301519082015260608101610746565b805182525f602082015160a06020850152613edf60a0850182613ce1565b9050604083015160408501526060830151606085015260808301518482036080860152613f0c8282613ce1565b95945050505050565b602081525f6138676020830184613ec1565b602081525f6138676020830184613d7b565b5f60208284031215613f49575f5ffd5b61386782613d38565b634e487b7160e01b5f52604160045260245ffd5b5f82601f830112613f75575f5ffd5b8135602083015f5f6001600160401b03841115613f9457613f94613f52565b50604051601f19601f85018116603f011681018181106001600160401b0382111715613fc257613fc2613f52565b604052838152905080828401871015613fd9575f5ffd5b838360208301375f602085830101528094505050505092915050565b5f5f5f60608486031215614007575f5ffd5b8335925060208401356001600160401b03811115614023575f5ffd5b61402f86828701613f66565b93969395505050506040919091013590565b602080825282518282018190525f918401906040840190835b818110156119ce576140818385518051825260208082015190830152604090810151910152565b602093909301926060929092019160010161405a565b805182525f602082015160a060208501526140b560a0850182613ce1565b905060408301516040850152606083015184820360608601526140d88282613ce1565b915050608083015160808501528091505092915050565b602081525f6138676020830184614097565b5f602082016020835280845180835260408501915060408160051b8601019250602086015f5b82811015613e3a57603f19878603018452614143858351614097565b94506020938401939190910190600101614127565b5f5f5f5f6080858703121561416b575f5ffd5b84356001600160401b03811115614180575f5ffd5b61418c87828801613f66565b9450506020850135925060408501356001600160401b038111156141ae575f5ffd5b6141ba87828801613f66565b949793965093946060013593505050565b5f5f604083850312156141dc575f5ffd5b6141e583613d38565b9150602083013580151581146141f9575f5ffd5b809150509250929050565b5f5f5f5f60808587031215614217575f5ffd5b61422085613d38565b935061422e60208601613d38565b92506040850135915060608501356001600160401b0381111561424f575f5ffd5b61425b87828801613f66565b91505092959194509250565b5f602082016020835280845180835260408501915060408160051b8601019250602086015f5b82811015613e3a57603f198786030184526142a9858351613ec1565b9450602093840193919091019060010161428d565b8051825260018060a01b0360208201511660208301525f6040820151606060408501526123ce6060850182613d7b565b5f602082016020835280845180835260408501915060408160051b8601019250602086015f5b82811015613e3a57603f198786030184526143308583516142be565b94506020938401939190910190600101614314565b5f5f60408385031215614356575f5ffd5b61435f83613d38565b915061436d60208401613d38565b90509250929050565b5f5f5f5f60808587031215614389575f5ffd5b8435935060208501356001600160401b038111156143a5575f5ffd5b6143b187828801613f66565b9350506040850135915060608501356001600160401b0381111561424f575f5ffd5b602081525f61386760208301846142be565b5f5f604083850312156143f6575f5ffd5b8235915061436d60208401613d38565b600181811c9082168061441a57607f821691505b60208210810361443857634e487b7160e01b5f52602260045260245ffd5b50919050565b634e487b7160e01b5f52601160045260245ffd5b5f600182016144635761446361443e565b5060010190565b634e487b7160e01b5f52603260045260245ffd5b808201808211156107465761074661443e565b60208082526019908201527f506169726564206a6f6220646f6573206e6f7420657869737400000000000000604082015260600190565b6020808252601c908201527f446f63756d656e74205552492063616e6e6f7420626520656d70747900000000604082015260600190565b818103818111156107465761074661443e565b601f821115610f3b57805f5260205f20601f840160051c810160208510156145375750805b601f840160051c820191505b818110156137f6575f8155600101614543565b81516001600160401b0381111561456f5761456f613f52565b6145838161457d8454614406565b84614512565b6020601f8211600181146145b5575f831561459e5750848201515b5f19600385901b1c1916600184901b1784556137f6565b5f84815260208120601f198516915b828110156145e457878501518255602094850194600190920191016145c4565b508482101561460157868401515f19600387901b60f8161c191681555b50505050600190811b01905550565b5f81518060208401855e5f93019283525090919050565b5f6123ce6146358386614610565b84614610565b6001600160a01b03858116825284166020820152604081018390526080606082018190525f9061466d90830184613ce1565b9695505050505050565b5f60208284031215614687575f5ffd5b815161386781613cb156fe0107def6df79b4a289a3789866484771175348a0c79c386532a6bbf6b63cf935a2646970667358221220586668fb97e5fa783d4ccd355c2de02ac199c106ffc62156df4d7e44eeef75bc64736f6c634300081c0033",
  "linkReferences": {},
  "deployedLinkReferences": {},
  "immutableReferences": {},
  "inputSourceName": "project/contracts/QuestTokenNFT.sol",
  "buildInfoId": "solc-0_8_28-55cf2ffb6577d9f5ba96eadb7fe9cb43f31d00ca"
}